:100000000C946F000C9497000C9497000C9497003C
:100010000C9497000C9497000C9497000C94970004
:100020000C9497000C9497000C9497000C949700F4
:100030000C9497000C9497000C9497000C949700E4
:100040000C9497000C9497000C94C5010C94EB0150
:100050000C9497000C9497000C9497000C949700C4
:100060000C9497000C9497000C9497000C949700B4
:100070000C9497000C9497000C9497000C949700A4
:100080000C9497000C9497000C9497000C94970094
:100090000C9497000C9497000C9497000C94970084
:1000A0000C9497000C9497000C9497000C94970074
:1000B0000C9497001B5B306D001B5B33316D001B94
:1000C0005B306D001B5B33336D001B5B306D001BC1
:1000D0005B33326D00001102C7021802CE021124F8
:1000E0001FBECFEFD8E0DEBFCDBF11E0A0E0B1E092
:1000F000ECE7FAE002C005900D92A434B107D9F7FD
:1001000023E0A4E4B1E001C01D92A735B207E1F7F6
:1001100010E0CDE6D0E004C02197FE010E942B053F
:10012000CB36D107C9F70E94A6020C9431050C9476
:100130000000CF92DF92EF92FF920F931F93FC018A
:1001400072836183548343833683258310870783B7
:10015000F286E186D486C3861F910F91FF90EF90BF
:10016000DF90CF900895FC011282118214821382D5
:1001700016821582108617821286118614861386BF
:100180000895CF93DF93FC012081211136C0EC014B
:1001900081E08083CB01BA010E94E30320E030E0DC
:1001A00040E851E40E9471049B01AC0160E074E2FC
:1001B00084E79BE40E94420320E030E040E85FE3F4
:1001C0000E94D5020E94DE040E94B403F89481E0EC
:1001D000882391F0E981FA817083EB81FC8160834F
:1001E000E985FA85808186608083EF81F88580814A
:1001F0008869808380E0ECCF7894DF91CF91089577
:10020000CF93DF93DC01FC01E15FFD4F80818F5FC5
:10021000FD01E05FFD4F90818917D1F3ED01C15FD2
:10022000DD4F9881FD01E90FF11DE35FFE4F608313
:1002300088831796ED91FC91189780818062808366
:10024000DF91CF9108950E94000108950F931F93AD
:10025000CF93DF938C01EB016881662329F021960F
:10026000C8010E942301F8CFDF91CF911F910F9118
:1002700008950F931F93CF93DF938C01EB01FE0141
:100280008491882331F021966491C8010E94000175
:10029000F6CFDF91CF911F910F910895CF93DF9308
:1002A000FC01E35FFD4F3081EC01AB85BC852C91F7
:1002B000DC01A30FB11D1D962C9380818F5F80837D
:1002C000DF91CF910895CF93DF93FC01E15FFD4F64
:1002D000308131962081321791F0DC011B96CD914F
:1002E000DC911C97DF012081820F911DFC01E35FEF
:1002F000FE4F808188838C918F5F8C9308C0DC01D6
:100300001796ED91FC91189780818F7D8083DF9106
:10031000CF910895AF92BF92CF92DF92EF92FF926A
:100320000F931F93CF93DF93EC015B010197C9F407
:100330006F3F7F4FB1F40F2EF6ECCF2ED12CF02D66
:100340000F2EF2ECEF2EF12CF02D01EC10E020EC52
:1003500030E044EC50E065EC70E084E491E00E9411
:100360009900CD2B39F4AB20A09421F484E491E0E2
:100370000E94B300DF91CF911F910F91FF90EF90FA
:10038000DF90CF90BF90AF9008951F920F920FB65D
:100390000F9211242F933F934F935F936F937F930B
:1003A0008F939F93AF93BF93EF93FF9384E491E078
:1003B0000E944E01FF91EF91BF91AF919F918F915C
:1003C0007F916F915F914F913F912F910F900FBE51
:1003D0000F901F9018951F920F920FB60F92112435
:1003E0002F933F934F935F936F937F938F939F933D
:1003F000AF93BF93EF93FF9384E491E00E94630176
:10040000FF91EF91BF91AF919F918F917F916F91EC
:100410005F914F913F912F910F900FBE0F901F90C2
:1004200018956FEF7FEF81E090E00E948A010895B8
:100430006FEF7FEF80E090E00E948A010895FC0159
:10044000718360830895FC01118210820895FC017C
:10045000808191810E94C10008950F931F93CF93D3
:10046000DF93EC018B016FEC70E0888199810E9431
:100470003901B801888199810E9426016AEC70E0F7
:10048000888199810E943901DF91CF911F910F914D
:1004900008950F931F93CF93DF93EC018B0164ECCE
:1004A00070E0888199810E943901B8018881998121
:1004B0000E9426016FEB70E0888199810E943901CA
:1004C000DF91CF911F910F9108950F931F93CF93B9
:1004D000DF93EC018B0169EB70E0888199810E94C8
:1004E0003901B801888199810E94260164EB70E08E
:1004F000888199810E943901DF91CF911F910F91DD
:100500000895FC01808191810E94260108950F9336
:100510001F93CF93DF93EC018B01019749F46F3F59
:100520007F4F31F464E471E085E593E00E941F029F
:10053000CD2B39F40F3F1F4F21F485E593E00E9446
:100540002302DF91CF911F910F91089540E052EC6B
:1005500061E070E085E593E00E94270260E071E0D1
:1005600085E593E00E9481026FE071E085E593E00C
:100570000E942D026FE171E085E593E00E9449023F
:1005800062E371E085E593E00E946502FFCF6FEFC3
:100590007FEF81E090E00E94870208956FEF7FEF88
:1005A00080E090E00E94870208955058BB27AA2758
:1005B0000E94ED020C9437040E94290438F00E9436
:1005C000300420F039F49F3F19F426F40C942604EB
:1005D0000EF4E095E7FB0C942004E92F0E944804F8
:1005E00058F3BA17620773078407950720F079F468
:1005F000A6F50C946A040EF4E0950B2EBA2FA02DEC
:100600000B01B90190010C01CA01A0011124FF27BF
:10061000591B99F0593F50F4503E68F11A16F040BA
:10062000A22F232F342F4427585FF3CF46953795B9
:100630002795A795F0405395C9F77EF41F16BA0B7E
:10064000620B730B840BBAF09150A1F0FF0FBB1F2C
:10065000661F771F881FC2F70EC0BA0F621F731F75
:10066000841F48F4879577956795B795F7959E3FD2
:1006700008F0B0CF9395880F08F09927EE0F979563
:10068000879508950E9456030C9437040E94300405
:1006900058F00E94290440F029F45F3F29F00C949F
:1006A000200451110C946B040C9426040E944804FD
:1006B00068F39923B1F3552391F3951B550BBB2791
:1006C000AA2762177307840738F09F5F5F4F220FD6
:1006D000331F441FAA1FA9F335D00E2E3AF0E0E8CD
:1006E00032D091505040E695001CCAF72BD0FE2F17
:1006F00029D0660F771F881FBB1F261737074807AB
:10070000AB07B0E809F0BB0B802DBF01FF27935862
:100710005F4F3AF09E3F510578F00C9420040C9402
:100720006B045F3FE4F3983ED4F386957795679525
:10073000B795F7959F5FC9F7880F911D9695879597
:1007400097F90895E1E0660F771F881FBB1F6217B6
:1007500073078407BA0720F0621B730B840BBA0B74
:10076000EE1F88F7E09508950E94500488F09F5787
:1007700098F0B92F9927B751B0F0E1F0660F771FC5
:10078000881F991F1AF0BA95C9F714C0B13091F0BB
:100790000E946A04B1E008950C946A04672F782FD0
:1007A0008827B85F39F0B93FCCF386957795679580
:1007B000B395D9F73EF490958095709561957F4FEC
:1007C0008F4F9F4F0895E89409C097FB3EF4909592
:1007D0008095709561957F4F8F4F9F4F9923A9F01A
:1007E000F92F96E9BB279395F695879577956795A9
:1007F000B795F111F8CFFAF4BB0F11F460FF1BC0ED
:100800006F5F7F4F8F4F9F4F16C0882311F096E97F
:1008100011C0772321F09EE8872F762F05C066232D
:1008200071F096E8862F70E060E02AF09A95660FE6
:10083000771F881FDAF7880F9695879597F908959F
:1008400097F99F6780E870E060E008959FEF80EC83
:10085000089500240A941616170618060906089526
:1008600000240A9412161306140605060895092E8C
:100870000394000C11F4882352F0BB0F40F4BF2BFB
:1008800011F460FF04C06F5F7F4F8F4F9F4F08953B
:1008900057FD9058440F551F59F05F3F71F0479531
:1008A000880F97FB991F61F09F3F79F08795089516
:1008B000121613061406551FF2CF4695F1DF08C035
:1008C000161617061806991FF1CF86957105610552
:1008D00008940895E894BB2766277727CB0197F9FA
:1008E00008950E9484040C9437040E94290438F06F
:1008F0000E94300420F0952311F00C9420040C94F5
:10090000260411240C946B040E94480470F3959FF4
:10091000C1F3950F50E0551F629FF001729FBB27F6
:10092000F00DB11D639FAA27F00DB11DAA1F649F92
:100930006627B00DA11D661F829F2227B00DA11D45
:10094000621F739FB00DA11D621F839FA00D611DCB
:10095000221F749F3327A00D611D231F849F600DEC
:10096000211D822F762F6A2F11249F5750409AF015
:10097000F1F088234AF0EE0FFF1FBB1F661F771FA1
:10098000881F91505040A9F79E3F510580F00C946C
:1009900020040C946B045F3FE4F3983ED4F38695F7
:1009A00077956795B795F795E7959F5FC1F7FE2B0C
:1009B000880F911D9695879597F908950E94500488
:1009C000E8F09E37E8F09639B8F49E3848F4672F7F
:1009D000782F8827985FF9CF8695779567959395B7
:1009E0009539D0F3B62FB1706B0F711D811D20F4B6
:1009F00087957795679593950C9402050C941D0542
:100A00000C946B04882371F4772321F09850872B82
:100A1000762F07C0662311F499270DC09051862BBD
:100A200070E060E02AF09A95660F771F881FDAF76A
:100A3000880F9695879597F908959F3F31F09150CB
:100A400020F4879577956795B795880F911D9695B2
:100A5000879597F90895EE0FFF1F0590F491E02D0B
:100A6000099410E0CDE6D0E004C0FE010E942B0501
:0C0A70002196CF36D107C9F7F894FFCFCC
:100A7C00546869732069732061206C6F670A005495
:100A8C00686973206973206120696E666F0A00546F
:100A9C006869732069732061207761726E696E6773
:100AAC000A00546869732069732061206572726F43
:040ABC00720A0000BA
:00000001FF
